:020000040800F2
:10000000C8080020CD010008C1090008C507000884
:10001000BD0900081D050008131A000800000000B3
:10002000000000000000000000000000C90E0008F1
:100030002105000800000000150B0008B50F00089E
:10004000E7010008E7010008E7010008090E0008C1
:10005000E7010008E701000823050008E7010008A0
:10006000E7010008E7010008E7010008E7010008D0
:10007000E7010008E7010008E7010008E7010008C0
:10008000E7010008E7010008D5020008E7010008C1
:10009000E7010008E7010008E7010008E7010008A0
:1000A000E7010008E7010008E7010008E701000890
:1000B000E1120008E7010008E7010008E701000875
:1000C000E7010008E7010008E7010008E701000870
:1000D000E701000835180008E7010008E7010008FB
:1000E00025050008E7010008E7010008E70100080E
:1000F000E7010008E7010008E7010008E701000840
:10010000E7010008E7010008E7010008E70100082F
:10011000E7010008E7010008E7010008E70100081F
:10012000E7010008E7010008E7010008E70100080F
:1001300000F002F800F03AF80AA090E8000C8244BF
:100140008344AAF10107DA4501D100F02FF8AFF29C
:10015000090EBAE80F0013F0010F18BFFB1A43F0A5
:1001600001031847902C0000B02C0000103A24BF67
:1001700078C878C1FAD8520724BF30C830C144BF0C
:1001800004680C607047000000230024002500264E
:10019000103A28BF78C1FBD8520728BF30C148BFEA
:1001A0000B6070471FB51FBD10B510BD00F058F8AB
:1001B0001146FFF7F7FF01F099FE00F076F803B45F
:1001C000FFF7F2FF03BC00F07DF80000094880470C
:1001D00009480047FEE7FEE7FEE7FEE7FEE7FEE729
:1001E000FEE7FEE7FEE7FEE704480549054A064B41
:1001F00070470000B90F000831010008C802002054
:10020000C8080020C8040020C80400204FF00002E5
:1002100000B5134694469646203922BFA0E80C50FC
:10022000A0E80C50B1F12001BFF4F7AF090728BFD7
:10023000A0E80C5048BF0CC05DF804EB890028BF53
:1002400040F8042B08BF704748BF20F8022B11F07C
:10025000804F18BF00F8012B7047704770477047F8
:10026000754600F02BF8AE4605006946534620F06F
:100270000700854618B020B5FFF7B6FFBDE820405F
:100280004FF000064FF000074FF000084FF0000B52
:1002900021F00701AC46ACE8C009ACE8C009ACE805
:1002A000C009ACE8C0098D46704710B50446AFF3ED
:1002B00000802046BDE81040FFF781BF004870472E
:1002C0006802002001491820ABBEFEE726000200AC
:1002D0007047000010B54FF40871084800F038F876
:1002E000012804D1054800F02FF8054908804FF493
:1002F0000871024800F006F810BD0000002401401B
:100300002800002000220A12D3430360704721B165
:10031000826842F00102826003E0826822F00102FA
:100320008260704710B501F0F1FB01F001FC01F0B3
:1003300047FC10BD014600208A6802F004020AB1A1
:10034000012000E0002070470146C86C80B2704771
:1003500070B502460020002300240B125568CEB26F
:1003600005EA060415681D4015B10CB1012000E036
:10037000002070BD014600208A6802F008020AB120
:10038000012000E00020704710B50023CBB21AB165
:1003900044681C43446002E044689C43446010BDD0
:1003A00030B502460020002350680F4C20400D79E4
:1003B0000C6844EA05242043506090680B4C2040B0
:1003C000D1E902542C434D7944EA4504204390601E
:1003D000D06A20F470000C7C641EE4B2234340EA2F
:1003E0000350D06230BD0000FFFEF0FFFDF7F1FFCB
:1003F000F0B504460D4600200021092D11DDE0680E
:10040000A5F10A0606EB4607072606FA07F1884318
:10041000A5F10A0606EB460603FA06F10843E0607A
:100420000CE0206905EB4507072606FA07F188432B
:1004300005EB450603FA06F108432061072A0FDAA7
:10044000606B561E06EB86071F2606FA07F18843E7
:10045000561E06EB860605FA06F10843606322E0A5
:100460000D2A0FDA206BD61F06EB86071F2606FA29
:1004700007F18843D61F06EB860605FA06F1084306
:10048000206310E0E06AA2F10D0606EB86071F2646
:1004900006FA07F18843A2F10D0606EB860605FA77
:1004A00006F10843E062F0BD816841F00801816017
:1004B000704721B1826842F4A002826003E0826842
:1004C00022F4A00282607047816841F004018160DB
:1004D000704710B5012000F04BFB002000F048FBF6
:1004E00010BD000008B501460020009003480090B0
:1004F0000098084400900098008808BD006C0040F7
:1005000008B500220092044A0092009A0244009228
:10051000009A116008BD0000006C004000BFFEE7BB
:100520007047704770472DE9F041024600250026CC
:10053000002000230024002791F803C00CF00F05D1
:1005400091F803C00CF0100CBCF1000F03D091F82F
:1005500002C04CEA050591F800C0BCF1000F31D093
:10056000146800202BE04FF0010C0CFA00F3B1F8F6
:1005700000C00CEA03069E4220D183004FF00F0C0E
:100580000CFA03F7BC4305FA03FC4CEA040491F8A7
:1005900003C0BCF1280F06D14FF0010C0CFA00FC8F
:1005A000C2F814C00AE091F803C0BCF1480F05D1AD
:1005B0004FF0010C0CFA00FCC2F810C0401C0828D7
:1005C000D1D31460B1F800C0BCF1FF0F34DD546822
:1005D00000202EE000F1080C4FF0010808FA0CF39F
:1005E000B1F800C00CEA03069E4221D183004FF00F
:1005F0000F0C0CFA03F7BC4305FA03FC4CEA0404A5
:1006000091F803C0BCF1280F05D100F1080C08FADD
:100610000CF8C2F8148091F803C0BCF1480F07D160
:1006200000F1080C4FF0010808FA0CF8C2F810802D
:10063000401C0828CED35460BDE8F081F0B50A46CE
:10064000002300240021002500F00046B6F1004FF1
:1006500002D11D4EF16901E01B4E7168C0F30345E4
:1006600083B200F44016B6F5401F08D121F0706146
:10067000154E766826F07066134F7E6012E000F427
:100680008016B6F5801F06D1032606FA05F4A143AD
:1006900041F0706106E0460D360103FA06F6B143FB
:1006A00041F0706122B1460D360103FA06F631437E
:1006B00000F00046B6F1004F02D1034EF16101E0B7
:1006C000014E7160F0BD00000000014002460020B4
:1006D00093680B400BB1012000E00020704741619E
:1006E000704701617047000000200AE0002105E02A
:1006F0000022054B03EBC0135A54491C8029F7DB39
:10070000401C0428F2DB70476800002008B5012176
:10071000092000F01DFA4FF40060ADF8000004203D
:100720008DF8030069460B48FFF7FDFE01210A48DA
:10073000FFF784FF4FF48060ADF8000010208DF8C3
:10074000030003208DF8020069460248FFF7EBFE24
:1007500008BD0000000C01400003180010B5FFF7B1
:10076000D5FF00F079FD10BD2DE9F0414FF4806117
:100770001048FFF7B6FF00BF00BF00BF00BF00BFBB
:1007800000BF00BF00BF00BF00BF00BF00BF4FF4ED
:1007900080610848FFF7A3FF0748006802F005F8EA
:1007A0000646064A064B02F013F8044601F0CEFF57
:1007B000BDE8F081000C014064000020D7FA22A1BE
:1007C0002DE7923F00BFFEE770B5024600240025EA
:1007D00000230020958A138B1B0445EA030626F0AC
:1007E0007F4404EA01068E4201D1012000E000208E
:1007F00070BD21B1028842F00102028004E002884B
:100800004FF6FE731A400280704721B1028842F40D
:100810008072028004E002884FF6FF631A40028073
:10082000704721B1028842F40072028004E002881D
:100830004FF6FF531A400280704700002DE9F04345
:1008400085B004460D460026B1460427DFF8CC806B
:10085000A6884FF6C0700640684600F099F9DDF8AA
:1008600008802F48B8FBF0F01FFA80F946EA090625
:10087000A68020884FF6FE71084020800026294976
:10088000286888420CD828684000B8FBF0F087B28E
:10089000042F00DA04273E4309F10100208427E0F9
:1008A000E8884BF6FF71884206D1286800EB4000CB
:1008B000B8FBF0F087B209E0286800EBC00101EB5B
:1008C0000010B8FBF0F087B247F48047C7F30B0085
:1008D00008B947F0010747F4004006434FF496700B
:1008E00009FB00F04FF47A7190FBF1F0401C20847A
:1008F000A683208840F00100208026884FF6F5303E
:100900000640A8886989084306432680A889298962
:100910000843208105B0BDE8F083000000127A0092
:1009200040420F00A086010012B141F0010102E037
:100930004FF6FE7319400182704701827047000034
:1009400070B504460D4601211948FFF75EFF00BF50
:1009500018491748FFF738FF0028F9D000227821FE
:100960001348FFF7E1FF00BF13491148FFF72CFFC1
:100970000028F9D029460E48FFF7DFFF00BF0E49D7
:10098000891C0B48FFF720FF0028F8D021460848B3
:10099000FFF7D3FF00BF0849891C0548FFF714FF84
:1009A0000028F8D001210248FFF73BFF70BD00008E
:1009B00000540040010003008200070000BFFEE772
:1009C000704708B503208DF8000000208DF8010065
:1009D00001208DF802008DF80300684600F002F84F
:1009E00008BD000070B5002100230F22C47804B3B5
:1009F000154C246804F4E064C4F5E064210AC1F1F4
:100A00000403CA40447804FA03F184781440214373
:100A100009010E4C0678A155047804F01F05012445
:100A2000AC4005786D11AD0005F1E025C5F8004139
:100A300009E0047804F01F050124AC40044D067859
:100A4000761145F8264070BD0CED00E000E400E0B2
:100A500080E100E010B501F029FC01F041FC01F05B
:100A600061FC01F03FFD10BD70B505460C467F2CC2
:100A700001DB7E2000E020460446032D01DB03203D
:100A800000E02846054645F0B0000021FFF758FF7A
:100A900004F00F000021FFF753FF102141EA14106A
:100AA0000021FFF74DFF70BD10B5044621460248F6
:100AB00000F05DFD10BD00000004004010B500F026
:100AC00007F847214FF47A7000F0D2FD10BD000006
:100AD00008B50121092000F03BF801210848FFF783
:100AE000ADFD0120ADF8000018208DF803000320B3
:100AF0008DF8020069460348FFF715FD08BD0000A8
:100B000000081A00000C014001490862704700000B
:100B100000000E427047000001460020034A506862
:100B200020F440400843506070470000001002402D
:100B300029B1064AD2690243044BDA6104E0034A50
:100B4000D2698243014BDA61704700000010024015
:100B500029B1064A92690243044B9A6104E0034AB0
:100B600092698243014B9A61704700000010024075
:100B70000149086070470000400442420348406A4F
:100B800040F0807001494862704700000010024048
:100B900030B500210022002400232D4D6D6805F0A2
:100BA0000C0121B1042905D0082923D105E0294DE4
:100BB000056022E0274D05601FE0254D6D6805F4B6
:100BC0007012234D6D6805F48034022505EB9242C6
:100BD0001CB9214D554305600BE01D4D6D6805F4B2
:100BE00000351DB11C4D5543056002E0194D5543BC
:100BF000056002E0174D056000BF00BF144D6D6831
:100C000005F0F0010909154D6B5C0568DD40456094
:100C10000F4D6D6805F4E061090A104D6B5C456885
:100C2000DD4085600A4D6D6805F46051C90A0B4DC1
:100C30006B5C4568DD40C560054D6D6805F440415D
:100C4000890B074D6B5CC568B5FBF3F5056130BDDD
:100C50000010024000127A0000093D00140000203C
:100C60002400002010B501460022002300204A1174
:100C7000012A02D1094C236806E0022A02D1074C5E
:100C8000236A01E0054C636A01F01F0201249440CD
:100C90001C400CB1012000E0002010BD00100240FB
:100CA00000210B4A11700A4A203A82F820100128CC
:100CB00002D0042808D103E00121054A117004E0A4
:100CC0000521034A117000E000BF00BF704700001B
:100CD0002010024001490860704700003C04424275
:100CE0000249096A0143014A11627047001002403B
:100CF00010B50446FFF765FE0420FFF7F3FB4AF248
:100D0000A551884208D0204600F0E6FC4AF2A551E1
:100D10000420FFF7F5FB16E001214FF0C050FFF76C
:100D200007FF0120FFF7F0FE7B20FFF79BFF10B9C4
:100D30007A20FFF797FF00F0B5F80121032000F0BB
:100D400079F800F0A5F8FFF719FF10BD02490988EE
:100D50008143014A118070470428004010B50121E9
:100D60004FF0C050FFF7E4FE0120FFF7CDFEFFF784
:100D7000B0FB0120FFF794FF00BF4120FFF772FF97
:100D80000028FAD04FF48070FFF7AAFF0120FFF788
:100D9000A1FF00F087F800F07BF80121084600F081
:100DA00049F800F075F847F6FF7000F061F800F0C0
:100DB0006FF810BD0348008840F01000014908801A
:100DC0007047000004280040034800884FF6EF7188
:100DD000084001490880704704280040002103486A
:100DE0000188001F008841EA004070471C2800402D
:100DF00001460020034A12880A400AB1012000E09F
:100E0000002070470428004010B50120FFF7F0FFD4
:100E100068B10120FFF79AFF00F070FC04480068F9
:100E2000401C0349086000F033F801F07FFB10BD5F
:100E30003000002029B1064A12880243044B1A8070
:100E400004E0034A12888243014B1A807047000075
:100E50000028004000B50246FFF7ACFF100C034924
:100E60000880091D0A80FFF7AFFF00BD1828004069
:100E700000B50246FFF79EFFC2F303400349088016
:100E8000091D0A80FFF7A0FF00BD000008280040F0
:100E900000BF0348008800F020000028F9D0704708
:100EA00004280040074800884FF6F77108400549BC
:100EB000088000BF0348008800F008000028F9D02F
:100EC0007047000004280040704710B500F002F899
:100ED00010BD00000CB50020019000903348006860
:100EE00040F480303149086000BF3048006800F4A9
:100EF000003000900198401C0190009818B90198AA
:100F0000B0F5A06FF1D12948006800F4003010B1AD
:100F10000120009001E0002000900098012843D1BA
:100F20002348006840F01000214908600846006826
:100F300020F0030008600846006840F002000860E6
:100F40001A484068194948600846406848600846A1
:100F5000406840F4806048600846406820F47C1097
:100F600048600846406840F4E81048600846006859
:100F700040F08070086000BF0C48006800F000700E
:100F80000028F9D00948406820F00300074948606C
:100F90000846406840F00200486000BF03484068CF
:100FA00000F00C000828F9D10CBD00000010024030
:100FB000002002407047000010B51348006840F060
:100FC00001001149086008464068104908400E4970
:100FD0004860084600680E4908400B49086008460A
:100FE000006820F4802008600846406820F4FE0075
:100FF00048604FF41F008860FFF767FF4FF0006004
:101000000449086010BD0000001002400000FFF815
:10101000FFFFF6FE08ED00E0F0B50C461546002295
:101020000021068C4FF6FE773E400684028B018C31
:101030004FF60C7632407E1C06EA03162E433243EE
:10104000104EB0420ED0104EB0420BD0B0F1804FD7
:1010500008D00E4EB04205D00D4EB04202D00D4E1B
:10106000B04206D14FF6FD76314044F001063143DF
:1010700005E04FF6F576314044F001063143028336
:101080000184F0BD002C0140003401400004004008
:1010900000080040000C0040F0B50C461546002248
:1010A00000210026078C4FF6EF7C07EA0C07078427
:1010B000028B018C4FF6FF7707EA041640F6FF47D4
:1010C0003A404FF6FF7707EA03373A434FF6FF7788
:1010D00007EA05273A43114FB8420ED0104FB842E5
:1010E0000BD0B0F1804F08D00E4FB84205D00E4F54
:1010F000B84202D00D4FB84206D14FF6DF773940E3
:1011000046F01007394305E04FF65F77394044F069
:101110001007394302830184F0BD0000002C014018
:10112000003401400004004000080040000C004072
:10113000F0B50C461546002200210026078C4FF61C
:10114000FF6C07EA0C070784828B018C4FF6FF7750
:1011500007EA04264FF60C773A404FF6FF7707EA86
:1011600003172F433A43114FB8420ED0104FB842E5
:101170000BD0B0F1804F08D00E4FB84205D00E4FC3
:10118000B84202D00D4FB84206D14FF6FF57394052
:1011900046F48077394305E04FF2FF57394044F475
:1011A0008077394382830184F0BD0000002C014028
:1011B000003401400004004000080040000C0040E2
:1011C000F0B50C461546002200210026078C4EF68D
:1011D000FF7C07EA0C070784828B018C4FF6FF77B0
:1011E00007EA043640F6FF473A404FF6FF7707EA32
:1011F00005273A434FF6FF7707EA03373A43114F83
:10120000B8420ED0104FB8420BD0B0F1804F08D08A
:101210000E4FB84205D00E4FB84202D00D4FB84223
:1012200006D14DF6FF77394046F48057394305E043
:1012300047F6FF57394044F480573943828301848D
:10124000F0BD0000002C01400034014000040040CB
:1012500000080040000C004000B587B0012108469E
:10126000FFF766FC4FF6FF70ADF814004720ADF8AD
:1012700010000020ADF81600ADF8120004A94FF0E0
:10128000804000F0A3F90C20ADF804000020ADF878
:1012900006000120ADF808000020ADF80A00ADF806
:1012A0000C0001A94FF0804000F0A8F801221121A4
:1012B000880700F0F9F81C208DF8000000208DF858
:1012C00001008DF8020001208DF803006846FFF749
:1012D00089FB0121880700F070F807B000BD00000D
:1012E00010B50121880700F078F840B12548006862
:1012F000401C244908600121880700F05BF8102198
:10130000880600F06AF8E0B34FF08040008C00F4EB
:10131000005000B34FF0804000F05BF81A490860BD
:101320001848006819490860174800681849096892
:10133000411A16480068174A1268801A01EB0040EB
:10134000154908604FF08040008C20F400504FF0A9
:101350008041088411E04FF0804000F03AF80C49D9
:101360000860084800680B4908604FF08040008C16
:1013700040F400504FF0804108841021880600F0AE
:1013800019F810BD60000020540000205C0000200F
:1013900050000020580000206400002021B1028885
:1013A00042F08002028004E002884FF67F731A4008
:1013B00002807047CA430282704721B1028842F01E
:1013C0000102028004E002884FF6FE731A40028098
:1013D00070470146B1F84000704730B50246002022
:1013E00000230024158A05EA0103958905EA010412
:1013F00013B10CB1012000E0002030BD70B50546EE
:101400000C46244885420ED0234885420BD0B5F1C6
:10141000804F08D02148854205D02148854202D01E
:101420002048854200D100E000BF208850B92389C0
:10143000A28861882846FFF7EFFDE188284600F082
:1014400098F825E0208804280AD12389A288618899
:101450002846FFF721FEE188284600F093F817E0C0
:10146000208808280AD12389A28861882846FFF7A6
:101470005FFEE188284600F092F809E02389A288FF
:1014800061882846FFF79CFEE188284600F090F826
:1014900070BD0000002C01400034014000040040F9
:1014A00000080040000C00401AB183890B4383817F
:1014B00002E083898B4383817047000070B500246C
:1014C00000220023058C4FF6FF6635400584028C10
:1014D0008388848B4FF68F752C404FF6FC752C401B
:1014E0000D882C434FF6FF552A400D894FF6FF76A5
:1014F00006EA05252A434D8806EA05252A43154DA7
:10150000A84202D0144DA8421DD14FF2FF752A40C7
:101510004D894FF6FF7606EA05252A434FF6FF353B
:101520002A408D8806EA05252A434EF6FF752B4092
:101530004DF6FF752B408D8906EA05152B43CD89A5
:1015400006EA05152B4383808483CD888587028432
:1015500070BD0000002C0140003401400A4600210B
:10156000818B4FF6F7731940114381837047818750
:101570007047028B4FF6F3731A400283028B0A43C3
:1015800002837047028B4FF2FF331A400283028BB3
:101590004FF6FF7303EA01231A4302837047828BDD
:1015A0004FF6F3731A408283828B0A43828370471B
:1015B000828B4FF2FF331A408283828B4FF6FF7388
:1015C00003EA01231A438283704700000022028845
:1015D0001D4B98420ED01D4B98420BD0B0F1804F5E
:1015E00008D01B4B984205D01A4B984202D01A4B98
:1015F000984204D14FF68F731A404B881A43174B09
:10160000984207D0164B984204D04FF6FF431A4039
:10161000CB881A4302808B8883850B8803850A4B0D
:1016200098420BD0094B984208D00E4B984205D0F7
:101630000D4B984202D00D4B984201D10B7A038694
:101640000123838270470000002C014000340140D8
:101650000004004000080040000C00400010004062
:101660000014004000400140004401400048014097
:1016700030B587B005460C4601210220FFF758FA25
:101680000020ADF81600ADF81200ADF81450ADF81A
:10169000104004A90F48FFF799FF6020ADF8000043
:1016A0000120ADF802000020ADF80600ADF80800FA
:1016B00069460848FFF702FF08210648FFF74EFF7A
:1016C00001210448FFF76AFE01210248FFF775FE79
:1016D00007B030BD0004004070B50446FFF73EFB84
:1016E000FFF7D6FB204600F0ABFD00F5E1452846AC
:1016F000FFF7B0FBFFF7CCFB70BD000010B588B062
:101700001C2101A8FEF782FDFFF768FB044601A932
:10171000204600F027FF039882B202232C210020EC
:1017200000F092FE41A23A21002000F0CBFE012001
:1017300000F092FA02980A280DDA012300224021D3
:10174000104600F081FE029882B20123462100205B
:1017500000F07AFE06E0029882B2022340210020C7
:1017600000F072FE31A24D21002000F0ABFE019886
:101770000A280DDA012300225421104600F064FEED
:10178000019882B201235B21002000F05DFE06E09B
:10179000019882B202235421002000F055FE0698E1
:1017A00082B204232021012000F04EFE012000F02F
:1017B00053FA1FA23921012000F084FE05980A285F
:1017C0000DDA012300224021184600F03DFE059865
:1017D00082B201234721184600F036FE06E0059844
:1017E00082B202234021012000F02EFE10A24D21E2
:1017F000012000F067FE04980A280DDA0123002278
:101800005421184600F020FE049882B201235B2187
:10181000184600F019FE06E0049882B20223542113
:10182000012000F011FE08B010BD00003A000000D9
:101830002F00000010B540F22551054800F025F8B2
:1018400020B1034800F0DCF80249088010BD000018
:10185000003801403800002021B1828942F4005252
:10186000828104E082894DF6FF731A4082817047BD
:1018700002460020B1F5007F00D100BF13880B4065
:101880000BB1012000E00020704770B50246002433
:1018900000230025002040F66A16B14200D100BFA7
:1018A000C1F3421501F01F03012606FA03F3012DCF
:1018B00002D19689334006E0022D02D1168A3340C8
:1018C00001E0968A33400C12012606FA04F41688C9
:1018D000344013B10CB1012000E0002070BDF0B520
:1018E0000346002400260025002040F66A17B9426E
:1018F00000D100BF1846C1F3421401F01F060127B2
:1019000007FA06F5012C01D10C3004E0022C01D1BC
:10191000103000E014301AB107682F43076002E06E
:101920000768AF430760F0BD2DE9F04786B0054674
:101930000E460024A24600BFA1460027B08900B190
:1019400000BF2F462C8A4CF6FF700440F0880443F9
:101950002C82AC894EF6F3100440B08831890843DC
:10196000718908430443AC81AC8A4FF6FF400440C0
:10197000B0890443AC8201A8FFF70AF91F488742E7
:1019800002D1DDF810A001E0DDF80CA0A88900F478
:10199000004040B10AEBCA0000EB0A103168490070
:1019A000B0FBF1F807E00AEBCA0000EB0A1031685F
:1019B0008900B0FBF1F86420B8FBF0F004012009C5
:1019C000642101FB1089A88900F4004040B1322055
:1019D00000EBC900B0FBF1F000F00700044308E0A1
:1019E000322000EB09106421B0FBF1F000F00F0091
:1019F00004432C8106B0BDE8F087000000380140A8
:101A000001468888C0F308007047C1F3080282804D
:101A1000704700BFFEE7000000B587B00121042039
:101A2000FFF796F801218803FFF792F818208DF848
:101A30001B004FF40070ADF8180003208DF81A0059
:101A400006A91E48FEF76FFD04208DF81B0000025A
:101A5000ADF8180006A91948FEF765FD4FF41650B9
:101A600002900020ADF814000C20ADF81200002008
:101A7000ADF81000ADF80E00ADF80C0002A910484A
:101A8000FFF752FF012240F225510D48FFF727FFD3
:101A900025208DF8040001208DF8070000208DF826
:101AA000050001208DF8060001A8FEF79BFF01212B
:101AB0000348FFF7D1FE07B000BD00000008014059
:101AC0000038014070B504460D4629462046FFF710
:101AD0009CFF00BF80212046FFF7CAFE0028F9D0F6
:101AE00070BD70B506460C46002500BF615D3046EE
:101AF000FFF7E8FF6D1C605D0028F7D100BF4021B3
:101B00003046FFF7B5FE0028F9D070BD08B50121B9
:101B10001020FFF71DF800208DF803000120ADF81C
:101B2000000069460148FEF7FEFC08BD00100140B8
:101B300000B585B001214802FFF70AF800200090A7
:101B40008DF8040001208DF805004FF4602002900C
:101B50000020039001208DF8100069461748FEF719
:101B60001FFC4FF44040FEF7D7FF052301220A2156
:101B70001248FEF73DFC01224FF408710F48FEF7B2
:101B800003FC01210D48FEF7C2FB0C48FEF78CFC5C
:101B900000BF0A48FEF7EEFB0028FAD10748FEF71F
:101BA00093FC00BF0548FEF7C5FB0128FAD10121CF
:101BB0000248FEF77EFC05B000BD00000024014095
:101BC00008B512208DF8000001208DF801008DF875
:101BD00002008DF803006846FEF704FF08BD30B52B
:101BE00005460C46022C07D1284600F0A1F808B1A2
:101BF0001D2030BD1C20FCE7042C05D0062C03D092
:101C0000092C01D00B2C01D11E20F2E71F20F0E798
:101C1000F0B50446002540F2B2770AE0384600F0FD
:101C200087F810B14FF4B77001E040F26D10054431
:101C30007F1C6069B842F1DC012605E0314660692D
:101C4000FFF7CDFF0544761C2069B042F6DCE06862
:101C5000401E05442846F0BD002105E0002200E0BA
:101C6000521C7B2AFCDB491C8142F7DB704710B514
:101C7000044603E04FF47A7000F012F8201EA4F13D
:101C80000104F7D110BD10B5044603E04FF47A709B
:101C9000FFF7EDFF201EA4F10104F7D110BD0000F5
:101CA00070B503461E4800681E4AB0FBF2F1B1F160
:101CB000807F00D31DE021F07F40401E4FF0E022E6
:101CC000506150170F22002807DA1407260E164C11
:101CD00000F00F052D1F665503E01407250E134C69
:101CE000255400BF00204FF0E022906107201061D2
:101CF00000BF07E000BF4FF0E020006900F4803033
:101D00000028F8D0181EA3F10103F3D14FF0E02012
:101D1000006920F001004FF0E021086170BD000073
:101D20000000002040420F0018ED00E000E400E059
:101D300001460A46C81701EB90708010A1EB8000A5
:101D400028B9642091FBF0F300FB131030B94FF475
:101D5000C87091FBF0F300FB131008B90120704725
:101D60000020FCE708B501211020FEF7F1FE01215B
:101D70002020FEF7EDFE10208DF803004FF44060A8
:101D8000ADF8000003208DF8020069460B48FEF70D
:101D9000CAFB04208DF803000120ADF8000069465D
:101DA0000748FEF7C0FB48208DF803004020ADF83F
:101DB000000069460148FEF7B6FB08BD001001406F
:101DC0000014014010B54FF4FA7007490860012073
:101DD0000649086081020648FEF783FC024909882B
:101DE00088B2FEF761FE10BD2C0000203C000020F0
:101DF0000010014010B5FA20094908600120094986
:101E0000086081020848FEF76AFC4FF4006106484A
:101E1000FEF767FC0249098888B2FEF745FE10BD4F
:101E20002C0000203C0000200010014010B54FF4B1
:101E30007A700A4908600620094908604FF4006179
:101E40000848FEF74EFC4FF480610648FEF749FC57
:101E50000249098888B2FEF727FE10BD2C00002039
:101E60003C0000200010014010B5084800686438AC
:101E70000649086008460068FA2801DCFA20086074
:101E80000249098888B2FEF70FFE10BD2C00002021
:101E900010B5002007490860074908604FF48061C9
:101EA0000648FEF71CFC0449098888B2FEF7FCFDD1
:101EB00010BD00003C0000202C000020001001405C
:101EC00010B5094800686430074908600846006892
:101ED000B0F57A7F02DB4FF47A7008600249098816
:101EE00088B2FEF7E1FD10BD2C00002088B04FF055
:101EF000000AFEF7E3FDFEF7ADFDFEF713FAFEF76D
:101F00002DFCFFF789FDFFF72DFF40F2E9700690E9
:101F10000520059019200490112003900B200290B9
:101F20000020019001A8FEF7E3FE9FA200210220FD
:101F300000F0C8FA9EA20021032000F0C3FA32E1AB
:101F40000120FFF7A0FE01219B48FEF7BFFBD0B99F
:101F5000FFF79EFF99A22D21022000F0B3FA9A48C4
:101F6000008882B203232821184600F06DFA97A258
:101F70003B21032000F0A6FA0020954908600920C3
:101F8000944908800FE140219348FEF79FFB78B900
:101F90000AF1010A50460AEBD0714910AAEB41013F
:101FA00019B932208B49088002E03720894908801E
:101FB00088480088313807281CD2DFE800F0041C6C
:101FC000344A78608B00FFF7FDFE84A22D210220A9
:101FD00000F078FA7C48008882B203232821184652
:101FE00000F032FA79A23B21032000F06BFA0020C6
:101FF0007749086096E0FFF74BFF70A22D21022081
:1020000000F060FA7048008882B203232821184645
:1020100000F01AFA6DA23B21032000F053FA0020D1
:102020006B4908607EE0FFF74BFF6748008882B28B
:1020300003232821184600F007FA64A23B2103205D
:1020400000F040FA002062490860092061490880D8
:1020500068E0FFF709FF5C48008882B2032328216B
:10206000184600F0F1F959A23B21032000F02AFAAA
:1020700000205749086009205649088052E0FFF7C0
:10208000B9FE59A22D21022000F01CFA4E4800880A
:1020900082B203232821184600F0D6F94BA23B2137
:1020A000032000F00FFA0020494908603AE0FFF7EA
:1020B000BDFE50A22D21022000F004FA4248008803
:1020C00082B204232821032000F0BEF900204049F9
:1020D000086027E001203E4908604948008800F078
:1020E00064FB0646474A484B00F072FB0446002258
:1020F000464B00F06BFC804600F028FB444908602A
:10210000098888B2FEF7D0FC42A22D21022000F0FF
:10211000D9F93F48008882B204232821032000F027
:1021200093F900BF00BFFEF71FFB3D49086008465A
:10213000006864280EDA0846006800280ADD39487D
:102140000068096808443749086037480068401C3F
:102150003549086034480068052818DB31480068B4
:102160003149096890FBF1F02E4908600846006883
:102170001E2803DB084600682D2803DD2BA12C4810
:10218000FFF7AFFC0020284908602649086029486D
:102190000068B0F5616F06DD27A12548FFF7A1FCB7
:1021A000002024490860CBE65374617475733A00CB
:1021B0004C696768743A0000001401404C45445F64
:1021C0004F464620000000002C00002020000000A8
:1021D0004800002038000020001001404C45445FBA
:1021E0004F4E202000000000485559414E2020202D
:1021F000000000005A48414F4D494E470000000082
:10220000280000209A9999999999C93F000089401E
:10221000340000205A49444F4E472020000000005F
:1022200040000020440000204C0000206F6E0000A1
:10223000003801403000002074696D650000000026
:1022400070B504462046FFF7E3FC0646094806FB46
:1022500000F5A068C0EB4011C1EB002005EB0015B4
:102260006068C0EB001005EB800520680544284637
:1022700070BD00008051010010B50246012002E04F
:1022800000FB02F398B20B1EA1F10104A1B2F7D139
:1022900010BD002107E0002201E0531C9AB27B2A06
:1022A000FBDB4B1C99B28142F5DB704708B501217D
:1022B0004805FEF73DFC01210820FEF749FC1C20E3
:1022C0008DF80300C020ADF8000003208DF8020057
:1022D00069460248FEF727F908BD0000000C0140DE
:1022E0001FB50020ADF804000C4800904BF6FF70BD
:1022F000ADF80600AA20ADF808004FF48040ADF814
:102300000C000120ADF80A0069460548FEF796FA70
:1023100001210348FEF76DFA1FBD0000E0930400A1
:102320000054004010B56420FFF7B3FF0021AE2039
:10233000FEF706FB0021D520FEF702FB00218020DE
:10234000FEF7FEFA0021A820FEF7FAFA00211F206E
:10235000FEF7F6FA0021D320FEF7F2FA0021084634
:10236000FEF7EEFA00214020FEF7EAFA00218D2068
:10237000FEF7E6FA00211420FEF7E2FA0021202001
:10238000FEF7DEFA00210846FEF7DAFA0021A12066
:10239000FEF7D6FA0021C820FEF7D2FA0021DA2093
:1023A000FEF7CEFA00210220FEF7CAFA00218120B2
:1023B000FEF7C6FA0021CF20FEF7C2FA0021D9208D
:1023C000FEF7BEFA0021F120FEF7BAFA0021DB2069
:1023D000FEF7B6FA00214020FEF7B2FA0021A42051
:1023E000FEF7AEFA0021A620FEF7AAFA0021AF20E0
:1023F000FEF7A6FAFEF778F90021AF20FEF7A0FA63
:1024000010BD00002DE9F04105460E461746002498
:1024100011E0A7F1200000EB4000094901EB40006A
:10242000005D084901EBC511321988540120FFF7FE
:1024300030FF601CC4B2062CEBDBBDE8F08100006D
:10244000B82B0008680000202DE9F05F81460F4698
:1024500090461C4600252CE0601B401E81B20A20DD
:10246000FFF70AFF98FBF0FA601B401E81B20A20BA
:10247000FFF702FF98FBF0F100FB11801FFA80F8D4
:10248000002611E00AF1100B0120FFF702FF0BEB11
:102490004B000A4901EB4000805D094901EBC9117D
:1024A000BA198854701C86B2062EEBDBBF1D681C5F
:1024B00085B2A542D0DBBDE8F09F0000B82B000834
:1024C0006800002070B506460D46144606E02278E6
:1024D00029463046FFF796FF641CAD1D2078002882
:1024E000F5D170BD70B540F6B830FFF7D2FE0024CC
:1024F00019E004F1B001C8B20021FEF721FA002171
:102500000846FEF71DFA00211020FEF719FA0025F3
:1025100005E040210020FEF713FA681CC5B2802DAB
:10252000F7DB601CC4B2082CE3DD70BD70B5002180
:102530000846FEF799FA00240EE0002509E0084954
:1025400001EBC411485D4021FEF7FAF900BF00BF5E
:102550006D1C802DF3DB641C042CEEDB70BD0000D1
:102560006800002070B505460C46A5F5E1453C2005
:10257000B5FBF0F100FB115020603C20B5FBF0F5FD
:10258000B5FBF0F100FB115060603C20B5FBF0F5AD
:102590001820B5FBF0F100FB1150A0601820B5FB2E
:1025A000F0F540F2B270606111E06069FFF7C0FBC6
:1025B00010B14FF4B77001E040F26D100646B5421D
:1025C00000D205E0AD1B6069401C606100BFECE714
:1025D00000BF012020610CE0D4E90410FFF7FFFAEE
:1025E0000646B54200D205E0AD1B2069401C2061C3
:1025F00000BFF1E700BF681CE06070BD10B591EA54
:10260000030F48BF83F0004300F1F481841A71EB9B
:10261000030C05D2121943EB0C03001B61EB0C01F8
:10262000DFF824E14FEA1154A4EB135C1EEA430FD8
:1026300018BF9EEA445F73D023EA0E03DCF1200E3C
:1026400021EA045143F4801332D322FA0CFE10EB3A
:102650000E0023FA0CFE41EB0E01CCF1200E03FA22
:102660000EFE10EB0E0051F10001B1F5801FCCF110
:10267000200E32D201EB045112FA0EF2BDE81040E6
:1026800058BF7047401C38BF5FEA420218BF70470E
:10269000002814BF20F0010041F100014FEA41037E
:1026A00013F5001F38BF7047A1F1C04100F088B991
:1026B000012A43EB0302ACF1200CDCF11F0E32BF08
:1026C0004FF0000E23FA0CF310EB030041EB045122
:1026D000B4EB115FD0D0A1EB045101F58011490892
:1026E0005FEA300001EB04510ED350F1000038BF17
:1026F00012FA0EFE08D1BDE81040C9E7401C38BFF1
:102700005FEA4202CAD1C3E7BDE810404FEA410385
:1027100013F5001F38BF7047A1F1C04100F050B958
:102720009EEA445F08D011EA5E0FBDE8104004BF86
:1027300001F0004100207047BDE8104070B500F086
:10274000F1F800BF64FBBE3E0000E0FF4FEA41032A
:102750004FEA5353A3F58063D3F11E03C8BFD3F1EF
:10276000210C0CDD4FF0004242EAC12242EA5052F5
:1027700032FA03FC8CEAE17CACEBE1707047102B81
:10278000C4BF0020704703F5787CBCF1FF3F04D044
:102790006FF0004282EA2100704770B500F0C2F885
:1027A0004992248000207047F2E7B0FA80F310FAD3
:1027B00003F10AD0C3F11D0303F580634FEA4150D2
:1027C0004FEA035202EBD12170474FF000007047EF
:1027D000DFF848C170B51CEA111E1EBF1CEA1315B4
:1027E0009EEA0C0F95EA0C0F00F06F8081EA03045B
:1027F00023EA4C134EEAD47E21EA4C1141F48011B5
:1028000043F48013AE44A1FB024CA0FB0365AEF180
:102810007F7E361955EB0C05A1FB034C4CF10003F0
:10282000A0FB021C16EB0C06654153F100030942A4
:1028300018BF46F0010613F4007F0BD14FEA0331B5
:102840004FEA0530340341EA155140EA16506FF063
:1028500003020AE04FEAC3214FEAC520F40241EA2D
:10286000555140EA56506FF0020202EB2E4201EB46
:10287000025585EACE710AD05FEA440C18BF24F0F5
:10288000004450F1000041F1000120EAD47040F210
:10289000FE7C624500D270BDA84214BF4FF0804458
:1028A0004FF04044002E08BF0024BEF1806FA8BF47
:1028B000A1F1C041BDE8704080F282804FF000007D
:1028C00001F1C04101F0004170479EEA0C0F0CEA93
:1028D000131518BF95EA0C0F06D04FF0000081EADF
:1028E000030E0EF0004170BD00F01CF88900013E9F
:1028F00000F007B800F009B84FEA430C5FEA5C5CEF
:1029000008D081EA030100F05BB84FEA410C5FEAAE
:102910005C5CF6D14FF00000014970470000FF07F2
:102920000000F87F0EF1020E2EF0030E5EF8046B2D
:10293000364205D4012A43EB030515F5001F12D8D2
:10294000012841EB010C1CF5001F0CD80ED14FEAF9
:10295000D17C15F5001F0CEB4C0C0CF1020C08BFE0
:102960004CEBD37C04E04FF0080C01E04FEAD37C41
:102970000CEB4C0526FA05F606F00706B6F1040C3A
:1029800006D20EEB860CBDE870404CF0010C60479F
:10299000DFE80CF0090B02024FF000414FF000009D
:1029A000A1F5002170BD19461046012851EB010424
:1029B00018BFD4F5001484BF002001F0004170BDA1
:1029C0000808A0F500114FEA3101704791EA030FA2
:1029D00010B581F000413FF519AE83F0004300F0DF
:1029E00009B8000010B591EA030F48BF83F0004317
:1029F0003FF50CAE841A71EB030C07D212198CF060
:102A0000004C43EB0C03001B61EB0C01DFF8A4E16D
:102A10004FEA1154A4EB135C1EEA430F18BF9EEA61
:102A2000445F00F0B08023EA6E03524221EA045171
:102A3000C3EB6E0338BF5B1EDCF1200E25D322FAF8
:102A40000CFE10EB0E0043FA0CFE41EB0E01CCF134
:102A5000200E03FA0EFE10EB0E0051F10001CCF136
:102A6000200E29D412FA0EF201EB0451BDE81040F9
:102A700058BF7047401C1CBFB2F1004F7047002880
:102A80000CBF491C20F00100704712EB020E43EB13
:102A9000030218BF4FF0010E4EEA4202ACF1200CC7
:102AA000DCF11E0E54D943FA0CFE10EB0E0051F16E
:102AB000FF31CCF11E0ED5D50EF1010E12FA0EFE2D
:102AC000404141EB010101EB445C5FEA5C5C10D9E1
:102AD00010EBDE7001EB045138BFBEF1004FBDE8D2
:102AE000104018BF704700280CBF491C20F001009F
:102AF000704730D24FEAD42C11F5001124F4006451
:102B00001BD0B1FA81F20B3AA41AA41ED2F1200311
:102B1000914030FA03F31943904001EBCC71002C43
:102B200001EB0451BDE81040A8BF704701F1C0415E
:102B30004FF0000001F000417047B0FA80F310FA46
:102B400003F100D110BDE41A173C4805C90AE4E7B7
:102B500001EB045110BD491001EB0451BDE81040D8
:102B60004FEA300002E04FF0000170474A0008BF12
:102B70000042F8D0B2F5001F28BF704701F00041B5
:102B80004FF0000070479EEA445F07D011EA5E0FE5
:102B9000BDE8104004BF002100207047BDE8104090
:102BA00070B5FFF7BFFE00BF40DFF63E83F0004187
:102BB000104670470000E0FF000000000000000029
:102BC000002F000000000700070000147F147F148E
:102BD00000242A7F2A120023130864620036495514
:102BE000225000000007000000001C2241000000ED
:102BF00041221C000014083E08140008083E080882
:102C0000000000A0600000080808080800006060DC
:102C10000000002010080402003E5149453E00001B
:102C2000427F4000004261514946002141454B31FD
:102C3000001814127F10002745454539003C4A49C9
:102C4000493000017109050300364949493600063B
:102C50004949291E000036360000000056360000A3
:102C6000000814224100001414141414000041221E
:102C70001408000201510906003E4955592E007CF6
:102C80001211127C007F49494936003E41414122E0
:102C9000007F4141221C007F49494941007F0909C9
:102CA0000901003E4149497A007F0808087F000079
:102CB000417F4100002040413F01007F0814224134
:102CC000007F40404040007F020C027F007F0408EC
:102CD000107F003E4141413E007F09090906003E48
:102CE0004151215E007F0919294600464949493171
:102CF0000001017F0101003F4040403F001F204094
:102D0000201F003F4038403F006314081463000751
:102D10000870080700615149454300007F414100A8
:102D2000000204081020000041417F00000402015D
:102D30000204004040404040000001020400002026
:102D400054545478007F4844443800384444442064
:102D500000384444487F00385454541800087E0911
:102D600001020018A4A4A47C007F080404780000D9
:102D7000447D4000004080847D00007F1028440096
:102D80000000417F4000007C04180478007C0804A7
:102D9000047800384444443800FC242424180018E3
:102DA000242418FC007C08040408004854545420CF
:102DB00000043F444020003C4040207C001C204058
:102DC000201C003C4030403C004428102844001C9B
:102DD000A0A0A07C004464544C440000087F410043
:102DE0000000007F00000000417F08000008040888
:102DF00010080000142E00080000002068000000E9
:102E00006C0100087C2E00086800002060080000AB
:102E10008801000800A24A04000000000000000031
:102E20000102030406070809000000000102030470
:102E30000102030406070809020406080000000056
:102E40000000000000000000000000003200000050
:102E50000000000000000000000000000000000072
:102E60000000000000000000000000000000000062
:0C2E700000000000000000000000000056
:0400000508000131BD
:00000001FF
